:020000040800F2
:1000000000000220550A0008BD090008C5090008C3
:10001000CD090008D5090008DD090008000000002E
:10002000000000000000000000000000E5090008DA
:10003000F309000800000000010A00080F0A000888
:10004000A50A0008A50A0008A50A0008A50A0008D4
:10005000A50A0008A50A0008A50A0008A50A0008C4
:10006000A50A0008A50A0008A50A0008A50A0008B4
:10007000A50A0008A50A0008A50A0008A50A0008A4
:10008000A50A0008A50A0008A50A0008A50A000894
:10009000A50A0008A50A0008A50A0008A50A000884
:1000A000A50A0008A50A0008A50A0008A50A000874
:1000B000F9060008A50A0008A50A0008A50A000814
:1000C000A50A0008A50A0008A50A0008A50A000854
:1000D000A50A0008A50A0008A50A0008A50A000844
:1000E000A50A0008A50A0008A50A0008A50A000834
:1000F000A50A0008A50A0008A50A0008A50A000824
:10010000A50A0008A50A0008A50A0008A50A000813
:100110001D0A0008A50A0008A50A0008A50A00088B
:10012000A50A0008A50A0008A50A0008A50A0008F3
:10013000A50A0008A50A0008A50A0008A50A0008E3
:10014000A50A0008A50A0008A50A0008A50A0008D3
:10015000A50A0008A50A0008A50A0008A50A0008C3
:10016000A50A0008A50A0008A50A0008A50A0008B3
:10017000A50A0008A50A0008A50A0008000000005A
:08018000A50A0008A50A000809
:1001880010B5054C237833B9044B13B10448AFF3C9
:1001980000800123237010BD14000020000000001F
:1001A800DC40000808B5034B1BB103490348AFF313
:1001B800008008BD0000000018000020DC40000896
:1001C80053B94AB9002908BF00281CBF4FF0FF31B6
:1001D8004FF0FF3000F06AB9ADF1080C6DE904CEBC
:1001E80000F006F8DDF804E0DDE9022304B070470A
:1001F8002DE9F047089D0C46002B4ED194468C45BE
:100208008646B2FA82F262D94AB1C2F1200391401D
:1002180020FA03F30CFA02FC194300FA02FE4FEA33
:100228001C471FFA8CF6B1FBF7F44FEA1E4307FB95
:10023800141143EA014304FB06F199420AD91CEB65
:10024800030304F1FF3080F01281994240F20F81DC
:10025800023C6344591A1FFA8EF3B1FBF7F007FB0F
:10026800101143EA014300FB06F69E420AD91CEB33
:10027800030300F1FF3180F0FC809E4240F2F980D8
:10028800634402389B1B40EA044000211DB1D3405F
:100298000022C5E90032BDE8F0878B4205D90DB1CF
:1002A800C5E9000100210846F5E7B3FA83F1002902
:1002B80046D1A34202D39042C0F0F080861A64EB84
:1002C80003030120002DE6D0C5E90063E3E7002A17
:1002D80040F09080A1EB0C044FEA1C481FFA8CF701
:1002E8000121B4FBF8F64FEA1E4308FB164443EA23
:1002F800044307FB06F0984208D91CEB030306F1F8
:10030800FF3402D2984200F2CD8026461C1A1FFA0A
:100318008EF3B4FBF8F008FB104443EA044300FBF7
:1003280007F79F4208D91CEB030300F1FF3402D200
:100338009F4200F2B0802046DB1B40EA0640A5E75A
:10034800C1F120068B4022FA06F71F4320FA06FC6B
:1003580004FA01F343EA0C03F44000FA01F8380CFC
:100368004FEA1349B4FBF0FE1FFA87FC00FB1E445A
:1003780049EA04440EFB0CF9A14502FA01F20AD934
:100388003C190EF1FF3A80F08480A14540F281804B
:10039800AEF1020E3C44A4EB09041FFA83F9B4FB46
:1003A800F0F300FB134449EA044403FB0CFCA445A6
:1003B80007D93C1903F1FF3067D2A44565D9023B40
:1003C8003C4443EA0E40A0FB0293A4EB0C049C427D
:1003D800CE469C4651D34ED055B1B8EB0E0364EBD4
:1003E8000C0404FA06F6CB401E43CC40C5E9006471
:1003F800002150E7C2F1200320FA03F10CFA02FCB5
:1004080024FA03F394400C434FEA1C4800FA02FE16
:100418001FFA8CF7B3FBF8F008FB1031230C43EA02
:10042800014300FB07F1994208D91CEB030300F1D3
:10043800FF362CD299422AD9023863445B1AA4B2F7
:10044800B3FBF8F108FB113344EA034401FB07F35B
:10045800A34208D91CEB040401F1FF3613D2A342CE
:1004680011D902396444E41A41EA004139E70446E3
:10047800F0E6084606E7C845AED2B9EB020E63EBD4
:10048800070C0138A8E73146EDE7034699E73046FF
:10049800D4E7D6467FE7634402384DE7064623464D
:1004A80008460FE7023E634430E700BF704700BFCD
:1004B80080B400AFBFF34F8F00BF064BDB6803F477
:1004C800E0620449044B1343CB60BFF34F8F00BF76
:1004D80000BFFDE700ED00E00400FA05B0B588B004
:1004E80000AF78607B687B4A934240F0EE80794B9E
:1004F8001B681B6803F02003202B00F0DA8003221E
:100508007549744802F096FE734B1B781A46724B75
:100518005B781344DA0F13445B10DBB2BB7707F147
:100528001E036E49184600F05BF90346002B00F0E5
:10053800BB80694B1B782B3B032B00F2B58001A2D3
:1005480052F823F05D0500088305000845060008F9
:10055800A7060008604B5B78412B40F0A28040F66C
:100568002923BB8307F11C0302221946594802F0CC
:100578002BFE5B4802F0B8F993E05A4B1B78002B2E
:100588000BD1554B5B781A46574B1A60554B1B7865
:100598000133DAB2534B1A7085E0524B1B78012BAA
:1005A8000ED14D4B5B781A024F4B1B6813434E4AD2
:1005B80013604C4B1B780133DAB24A4B1A7072E065
:1005C800484B1B78022B0ED1434B5B781A04464BE1
:1005D8001B681343444A1360424B1B780133DAB259
:1005E800404B1A705FE03F4B1B78032B5BD13D4BB0
:1005F80000221A70384B5B781A063B4B1B68134372
:10060800394A1360384800F06FFA0346002B0AD0C5
:1006180040F629233B8307F11803022219462D4887
:1006280002F0D2FD3FE040F62A23BB8207F1140313
:1006380002221946274802F0C7FD34E000F0ACFE5C
:100648002A4B1968244B5B78DBB200221C461546FE
:1006580022462B46002000F04BFE0346FB77FB7F2B
:10066800002B0FD1214B1B680133204A136040F641
:1006780029233B8207F1100302221946154802F08C
:10068800A3FD09E040F62A23BB8107F10C030222EF
:100698001946104802F098FD00F0A0FE04E0FFF7AC
:1006A80007FF00BF00E000BF0A4B1B686FF0200285
:1006B8001A60084B1B681B6803F04003402B04D1E9
:1006C800044B1B686FF040021A6000BF2037BD461C
:1006D800B0BD00BF78000020C4000020C600002084
:1006E80030000020C7000020C800002000000020C3
:1006F80080B500AF154B1B681B6903F00103012B84
:100708001ED14FF48051124801F059FA1A221149AA
:10071800114802F059FD114B1B780E2B05D9104BCF
:1007280001221A70094802F0DFF80C4B1B780133DC
:10073800DAB20A4B1A70054B1B686FF001021A6196
:10074800024802F000F900BF80BD00BF3000002061
:10075800000C0240F440000878000020C00000208F
:10076800CC00002080B500AF00F020FB00F038FA84
:100778004FF46131134800F0EBFA00F0C9F900F0CA
:1007880099FA032210490F4802F054FD0F4802F06D
:100798003BF80A2000F0B2FB0D4B1B78DBB2002BB4
:1007A8000BD001F0BFFE074802F0DCFC074801F05F
:1007B800D6FF00F01DFB00F073F9012000F09EFB4E
:1007C800EAE700BF78000020C400002030000020C5
:1007D800CC00002080B400AF72B600BF00BFFDE7B8
:1007E80080B483B000AF786039607B681A783B6862
:1007F8001B789A4201D1012300E0002318460C37E8
:10080800BD465DF8047B704780B483B000AF002319
:100818007B60104B5B6C0F4A43F4804353640D4B71
:100828005B6C03F480437B607B6800233B60094B6F
:100838001B6C084A43F080531364064B1B6C03F08F
:1008480080533B603B6800BF0C37BD465DF8047BB6
:10085800704700BF0038024080B584B000AF7860B0
:100868007B681B68B3F1804F15D10023FB600C4BEC
:100878001B6C0B4A43F001031364094B1B6C03F018
:100888000103FB60FB68002200211C2000F059FCDA
:100898001C2000F072FC00BF1037BD4680BD00BFB1
:1008A8000038024080B582B000AF78607B681B6872
:1008B800B3F1804F08D1064B1B6C054A23F00103A6
:1008C80013641C2000F067FC00BF0837BD4680BDDC
:1008D8000038024080B58AB000AF786007F1140391
:1008E80000221A605A609A60DA601A617B681B6895
:1008F8001D4A934234D100233B611C4B1B6C1B4A9D
:1009080043F400231364194B1B6C03F400233B616D
:100918003B690023FB60154B1B6B144A43F004032F
:100928001363124B1B6B03F00403FB60FB684FF46B
:1009380040637B610223BB610023FB6103233B62AD
:1009480008237B6207F114031946094800F086FE64
:1009580000220021342000F0F4FB342000F00DFCCC
:1009680000BF2837BD4680BD004C0040003802401B
:100978000008024080B582B000AF78607B681B68D1
:10098800094A93420CD1094B1B6C084A23F40023F3
:1009980013640321064800F0FDFF342000F0FBFB40
:1009A80000BF0837BD4680BD004C004000380240FB
:1009B8000000024080B400AF00BFFDE780B400AF84
:1009C80000BFFDE780B400AF00BFFDE780B400AF13
:1009D80000BFFDE780B400AF00BFFDE780B400AF03
:1009E80000BFBD465DF8047B704780B400AF00BF10
:1009F800BD465DF8047B704780B400AF00BFBD46BC
:100A08005DF8047B704780B500AF00F057FA00BF6F
:100A180080BD000080B500AF024802F031FC00BF85
:100A280080BD00BF7800002080B400AF064BD3F82B
:100A38008830054A43F47003C2F8883000BFBD46C9
:100A48005DF8047B704700BF00ED00E0DFF834D0AC
:100A5800FFF7EAFF0C480D490D4A002302E0D4587D
:100A6800C4500433C4188C42F9D30A4A0A4C0023F0
:100A780001E013600432A242FBD303F007FBFFF747
:100A880071FE7047000002200000002014000020C2
:100A98003841000814000020F4000020FEE70000A0
:100AA80080B584B000AF0D4B1B68FB60FB687B60B2
:100AB8007B6883F3088800BF094B1B681B68084ADA
:100AC8001360074B1B68BB60064A054B1B689360A5
:100AD800BB68984700BF1037BD4680BD008000083E
:100AE8000800002000ED00E080B483B000AF78601B
:100AF8007B681B684FF47822934201D8012300E0F9
:100B0800002318460C37BD465DF8047B704700008B
:100B180080B588B000AF07F10C0300221A605A6054
:100B28009A60DA601A610023BB602A4B1B6B294A62
:100B380043F080031363274B1B6B03F08003BB60F8
:100B4800BB6800237B60234B1B6B224A43F00103E5
:100B58001363204B1B6B03F001037B607B6800234E
:100B68003B601C4B1B6B1B4A43F008031363194B78
:100B78001B6B03F008033B603B6800224FF4704195
:100B8800154801F003F84FF47043FB6001233B6103
:100B980000237B610023BB6107F10C0319460E4853
:100BA80000F05CFD012201210C4800F0EFFF012359
:100BB800FB6000233B6102237B610023BB6107F1DB
:100BC8000C031946054800F049FD00BF2037BD4613
:100BD80080BD00BF00380240000C02400000024007
:100BE80080B594B000AF07F12003302200211846E9
:100BF80003F044FA07F10C0300221A605A609A6065
:100C0800DA601A610023BB60284B1B6C274A43F04B
:100C180080531364254B1B6C03F08053BB60BB6887
:100C280000237B60224B1B68214A43F480431360F6
:100C38001F4B1B6803F480437B607B6801233B6286
:100C48004FF480337B620223BB634FF48003FB6362
:100C580004233B64A8237B640223BB640423FB6452
:100C680007F12003184600F0C5FF0346002B01D00A
:100C7800FFF7B0FD0F23FB6002233B6100237B617C
:100C88004FF4A053BB614FF48053FB6107F10C0391
:100C98000521184601F026FA0346002B01D0FFF77C
:100CA80099FD00BF5037BD4680BD00BF00380240E7
:100CB8000070004080B586B000AF07F1080300223D
:100CC8001A605A609A60DA603B4600221A605A60DD
:100CD8001E4B4FF080421A601C4B4AF20F425A607A
:100CE8001A4B00229A60194B40F2E632DA60174B31
:100CF80000221A61154B00229A61144801F0E0FCA9
:100D08000346002B01D0FFF765FD4FF48053BB600D
:100D180007F1080319460D4801F005FF0346002BAB
:100D280001D0FFF757FD00233B6000237B603B4663
:100D38001946064802F036F90346002B01D0FFF7A2
:100D480049FD00BF1837BD4680BD00BF30000020F8
:100D580080B584B000AF786039607B68124A1A6049
:100D68007B683A685A607B6800229A607B68002238
:100D7800DA607B6800221A617B680C225A617B6802
:100D880000229A617B680022DA61786802F09AF999
:100D98000346FB73FB7B002B01D0FFF71BFD00BF55
:100DA8001037BD4680BD00BF004C004080B500AF85
:100DB8000E4B1B680D4A43F4007313600B4B1B6802
:100DC8000A4A43F480631360084B1B68074A43F4DC
:100DD80080731360032000F0A9F90F2000F03EF89B
:100DE800FFF712FD0023184680BD00BF003C0240FB
:100DF80080B500AF114B124A1A62104B00221A62DA
:100E08000E4B104A5A620D4B00225A620B4B0E4A87
:100E18001A610A4B00221A61084BC1225A61074B1A
:100E280000225A61054B01229A61044B00229A6103
:100E380000F00CF80023184680BD00BF00380240BF
:100E4800FFC9FEF633797704FF11602280B400AF42
:100E580000BFBD465DF8047B7047000080B582B0D6
:100E680000AF7860124B1A68124B1B7819464FF482
:100E78007A73B3FBF1F3B2FBF3F3184600F099F978
:100E88000346002B01D001230EE07B680F2B0AD804
:100E9800002279684FF0FF3000F053F9064A7B686A
:100EA8001360002300E0012318460837BD4680BDC3
:100EB80004000020100000200C00002080B400AFC7
:100EC800064B1B781A46064B1B681344044A1360EA
:100ED80000BFBD465DF8047B704700BF10000020CE
:100EE800D000002080B400AF034B1B681846BD46F5
:100EF8005DF8047B704700BFD000002080B584B047
:100F080000AF7860FFF7EEFFB8607B68FB60FB68B6
:100F1800B3F1FF3F05D00A4B1B781A46FB68134410
:100F2800FB6000BFFFF7DEFF0246BB68D31AFA6812
:100F38009A42F7D800BF00BF1037BD4680BD00BF3A
:100F48001000002080B485B000AF78607B6803F0A3
:100F58000703FB600C4BDB68BB60BA684FF6FF0306
:100F68001340BB60FB681A02BB68134343F0BF63BE
:100F780043F40033BB60044ABB68D36000BF143736
:100F8800BD465DF8047B704700ED00E080B400AF1B
:100F9800044BDB681B0A03F007031846BD465DF8DF
:100FA800047B704700ED00E080B483B000AF0346D7
:100FB800FB7197F90730002B0BDBFB7903F01F025D
:100FC800074997F907305B09012000FA02F241F856
:100FD800232000BF0C37BD465DF8047B704700BF77
:100FE80000E100E080B483B000AF0346FB7197F9DD
:100FF8000730002B12DBFB7903F01F020A4997F92F
:1010080007305B09012000FA02F2203341F823205F
:10101800BFF34F8F00BFBFF36F8F00BF00BF0C3708
:10102800BD465DF8047B704700E100E080B483B002
:1010380000AF03463960FB7197F90730002B0ADBD4
:101048003B68DAB20C4997F907301201D2B20B4467
:1010580083F800230AE03B68DAB20849FB7903F019
:101068000F03043B1201D2B20B441A7600BF0C37AF
:10107800BD465DF8047B704700E100E000ED00E04C
:1010880080B489B000AFF860B9607A60FB6803F09B
:101098000703FB61FB69C3F10703042B28BF042383
:1010A800BB61FB690433062B02D9FB69033B00E0F3
:1010B80000237B614FF0FF32BB6902FA03F3DA4386
:1010C800BB681A407B699A404FF0FF317B6901FA8F
:1010D80003F3D9437B680B40134318462437BD46B6
:1010E8005DF8047B7047000080B582B000AF78607F
:1010F8007B68013BB3F1807F01D301230FE00A4AEB
:101108007B68013B53600F214FF0FF30FFF78EFFE4
:10111800054B00229A60044B07221A6000231846E8
:101128000837BD4680BD00BF10E000E080B582B042
:1011380000AF78607868FFF705FF00BF0837BD4645
:1011480080BD80B586B000AF0346B9607A60FB7396
:1011580000237B61FFF71AFF78617A68B9687869BC
:10116800FFF78EFF024697F90F3011461846FFF732
:101178005DFF00BF1837BD4680BD80B582B000AFA7
:101188000346FB7197F907301846FFF70DFF00BFBC
:101198000837BD4680BD80B582B000AF0346FB71FD
:1011A80097F907301846FFF71DFF00BF0837BD46FF
:1011B80080BD80B582B000AF78607868FFF794FF93
:1011C800034618460837BD4680BD80B584B000AFD9
:1011D80078607B689B6DFB60FFF784FEB8607B6876
:1011E80093F83530DBB2022B08D07B6880225A6531
:1011F8007B68002283F83420012352E07B681B6857
:101208001A687B681B6822F016021A607B681B68E4
:101218005A697B681B6822F080025A617B681B6CE4
:10122800002B03D17B689B6C002B07D07B681B6865
:101238001A687B681B6822F008021A607B681B68C2
:101248001A687B681B6822F001021A6013E0FFF736
:1012580049FE0246BB68D31A052B0CD97B682022AD
:101268005A657B68032283F835207B68002283F85F
:101278003420032315E07B681B681B6803F0010317
:10128800002BE4D17B68DB6D3F229A40FB689A60B3
:101298007B68012283F835207B68002283F834209C
:1012A800002318461037BD4680BD80B483B000AF18
:1012B80078607B6893F83530DBB2022B04D07B680A
:1012C80080225A6501230CE07B68052283F83520CB
:1012D8007B681B681A687B681B6822F001021A6029
:1012E800002318460C37BD465DF8047B70470000A4
:1012F80080B586B000AFF860B960C7E90023012364
:10130800FB75234B1B7E012B01D102233BE0204BB5
:1013180001221A764CF2503000F070F80346FB7543
:10132800FB7D002B2BD1FB68002B05D13B781946A0
:10133800B86800F01BF916E0FB68012B05D13B8863
:101348001946B86800F0EEF80DE0FB68022B05D1ED
:101358003B681946B86800F0C3F804E0D7E90023F1
:10136800B86800F08BF84CF2503000F047F80346AC
:10137800FB75084B1B69074A23F001031361044BF3
:1013880000221A76FB7D18461837BD4680BD00BF7F
:10139800D4000020003C024080B483B000AF00239A
:1013A800FB710B4B1B69002B0BDA094B094A5A607E
:1013B800074B094A5A60064B1B69002B01DA0123C7
:1013C800FB71FB7918460C37BD465DF8047B704706
:1013D800003C024023016745AB89EFCD80B400AFE4
:1013E800054B1B69044A43F0004313610023184668
:1013F800BD465DF8047B7047003C024080B584B070
:1014080000AF78600023FB601A4B0022DA61FFF717
:1014180069FDF86010E07B68B3F1FF3F0CD07B6892
:10142800002B07D0FFF75EFD0246FB68D31A7A68E7
:101438009A4201D2032319E00F4BDB6803F480338F
:10144800002BE8D10C4BDB6803F00103002B02D022
:10145800094B0122DA60084BDB6803F0F203002B2A
:1014680003D000F0A5F8012300E000231846103748
:10147800BD4680BDD4000020003C024080B485B049
:1014880000AFF860C7E90023144B1B69134A23F423
:1014980040731361114B1B69104A43F44073136185
:1014A8000E4B1B690D4A43F001031361FB683A6850
:1014B8001A60BFF36F8F00BFD7E900014FF0000239
:1014C8004FF000030A000023F968043113460B604B
:1014D80000BF1437BD465DF8047B7047003C0240EE
:1014E80080B483B000AF786039600D4B1B690C4A3B
:1014F80023F4407313610A4B1B69094A43F40073D0
:101508001361074B1B69064A43F0010313617B68AB
:101518003A681A6000BF0C37BD465DF8047B704717
:10152800003C024080B483B000AF78600B467B80FB
:101538000D4B1B690C4A23F4407313610A4B1B695A
:10154800094A43F480731361074B1B69064A43F049
:10155800010313617B687A881A8000BF0C37BD4687
:101568005DF8047B704700BF003C024080B483B044
:1015780000AF78600B46FB700C4B1B690B4A23F4D9
:1015880040731361094B094A1B691361074B1B69B7
:10159800064A43F0010313617B68FA781A7000BFAA
:1015A8000C37BD465DF8047B704700BF003C024025
:1015B80080B400AF274BDB6803F01003002B08D082
:1015C800254BDB6943F01003234AD361214B1022DA
:1015D800DA60204BDB6803F02003002B08D01E4B99
:1015E800DB6943F008031C4AD3611A4B2022DA60F6
:1015F800184BDB6803F04003002B08D0164BDB695F
:1016080043F00403144AD361124B4022DA60114BB1
:10161800DB6803F08003002B08D00F4BDB6943F035
:1016280002030D4AD3610B4B8022DA60094BDB6859
:1016380003F00203002B08D0074BDB6943F02003BB
:10164800054AD361034B0222DA6000BFBD465DF84C
:10165800047B7047003C0240D400002080B489B06D
:1016680000AF7860396000237B6100233B61002371
:10167800BB610023FB616BE10122FB6902FA03F302
:101688007B613B681B687A6913403B613A697B69F7
:101698009A4240F05A813B685B6803F00303012BD0
:1016A80005D03B685B6803F00303022B30D17B68ED
:1016B8009B68BB61FB695B00032202FA03F3DB430F
:1016C800BA691340BB613B68DA68FB695B0002FAE0
:1016D80003F3BA691343BB617B68BA699A607B6894
:1016E8005B68BB610122FB6902FA03F3DB43BA6959
:1016F8001340BB613B685B681B0903F00102FB698F
:1017080002FA03F3BA691343BB617B68BA695A608A
:101718003B685B6803F00303032B17D07B68DB6827
:10172800BB61FB695B00032202FA03F3DB43BA697E
:101738001340BB613B689A68FB695B0002FA03F3DC
:10174800BA691343BB617B68BA69DA603B685B6856
:1017580003F00303022B23D1FB69DA087B68083204
:1017680053F82230BB61FB6903F007039B000F228B
:1017780002FA03F3DB43BA691340BB613B681A6999
:10178800FB6903F007039B0002FA03F3BA691343EA
:10179800BB61FB69DA087B680832B96943F8221033
:1017A8007B681B68BB61FB695B00032202FA03F3D9
:1017B800DB43BA691340BB613B685B6803F0030213
:1017C800FB695B0002FA03F3BA691343BB617B68E8
:1017D800BA691A603B685B6803F44033002B00F079
:1017E800B4800023FB60604B5B6C5F4A43F480432A
:1017F80053645D4B5B6C03F48043FB60FB685B4A9E
:10180800FB699B08023352F82330BB61FB6903F084
:1018180003039B000F2202FA03F3DB43BA69134068
:10182800BB617B68524A93422BD07B68514A9342F2
:1018380025D07B68504A93421FD07B684F4A934219
:1018480019D07B684E4A934213D07B684D4A934225
:101858000DD07B684C4A934207D07B684B4A934231
:1018680001D107230EE008230CE006230AE0052334
:1018780008E0042306E0032304E0022302E0012336
:1018880000E00023FA6902F0030292009340BA696B
:101898001343BB613549FB699B080233BA6941F8B8
:1018A80023203B4B9B68BB613B69DB43BA69134010
:1018B800BB613B685B6803F48013002B03D0BA69F3
:1018C8003B691343BB61324ABB699360304BDB68A9
:1018D800BB613B69DB43BA691340BB613B685B682A
:1018E80003F40013002B03D0BA693B691343BB61AF
:1018F800274ABB69D360264B5B68BB613B69DB4306
:10190800BA691340BB613B685B6803F40033002B82
:1019180003D0BA693B691343BB611D4ABB69536075
:101928001B4B1B68BB613B69DB43BA691340BB6156
:101938003B685B6803F48033002B03D0BA693B69CA
:101948001343BB61124ABB691360FB690133FB6136
:10195800FB690F2B7FF690AE00BF00BF2437BD4652
:101968005DF8047B704700BF003802400038014032
:10197800000002400004024000080240000C02403F
:10198800001002400014024000180240001C0240EF
:10199800003C014080B487B000AF78603960002314
:1019A8003B610023FB600023BB6000237B61CDE02B
:1019B80001227B6902FA03F33B613A683B691340F1
:1019C800FB60FA683B699A4240F0BD80654A7B69D2
:1019D8009B08023352F82330BB607B6903F0030392
:1019E8009B000F2202FA03F3BA681340BB607B68BE
:1019F8005D4A93422BD07B685C4A934225D07B6832
:101A08005B4A93421FD07B685A4A934219D07B683D
:101A1800594A934213D07B68584A93420DD07B6849
:101A2800574A934207D07B68564A934201D107230D
:101A38000EE008230CE006230AE0052308E004234F
:101A480006E0032304E0022302E0012300E0002370
:101A58007A6902F0030292009340BA689A4232D13E
:101A6800494B1A68FB68DB43474913400B60464BF8
:101A78005A68FB68DB43444913404B60424BDA68C1
:101A8800FB68DB4340491340CB603F4B9A68FB68D7
:101A9800DB433D4913408B607B6903F003039B00E4
:101AA8000F2202FA03F3BB602E4A7B699B080233BC
:101AB80052F82310BB68DA432A487B699B080A401E
:101AC800023340F823207B681A687B695B00032196
:101AD80001FA03F3DB431A407B681A607B69DA0872
:101AE8007B68083253F822107B6903F007039B00D8
:101AF8000F2202FA03F3DB437A69D20819407B68A4
:101B0800083243F822107B68DA687B695B0003219E
:101B180001FA03F3DB431A407B68DA607B685A6892
:101B280001217B6901FA03F3DB431A407B685A60A1
:101B38007B689A687B695B00032101FA03F3DB4346
:101B48001A407B689A607B6901337B617B690F2B44
:101B58007FF62EAF00BF00BF1C37BD465DF8047B83
:101B6800704700BF003801400000024000040240F6
:101B780000080240000C024000100240001402401D
:101B880000180240001C0240003C014080B483B0B1
:101B980000AF78600B467B8013467B707B78002B08
:101BA80003D07A887B689A6103E07B881A047B6893
:101BB8009A6100BF0C37BD465DF8047B704780B45E
:101BC80085B000AF78600B467B807B685B69FB6003
:101BD8007A88FB6813401A04FB68D9437B880B405A
:101BE8001A437B689A6100BF1437BD465DF8047BD1
:101BF8007047000080B586B000AF78607B68002B26
:101C080001D1012367E27B681B6803F00103002B05
:101C180075D0884B9B6803F00C03042B0CD0854BC4
:101C28009B6803F00C03082B12D1824B5B6803F40A
:101C38008003B3F5800F0BD17E4B1B6803F4003390
:101C4800002B5BD07B685B68002B57D1012342E2F5
:101C58007B685B68B3F5803F06D1764B1B68754A95
:101C680043F4803313601DE07B685B68B3F5A02FF5
:101C78000CD1704B1B686F4A43F4802313606D4B83
:101C88001B686C4A43F4803313600BE0694B1B6894
:101C9800684A23F480331360664B1B68654A23F453
:101CA800802313607B685B68002B13D0FFF71AF959
:101CB800386108E0FFF716F902463B69D31A642B2E
:101CC80001D9032307E25B4B1B6803F40033002BA5
:101CD800F0D014E0FFF706F9386108E0FFF702F9E1
:101CE80002463B69D31A642B01D90323F3E1514B14
:101CF8001B6803F40033002BF0D100E000BF7B68C1
:101D08001B6803F00203002B63D04A4B9B6803F067
:101D18000C03002B0BD0474B9B6803F00C03082BDC
:101D28001CD1444B5B6803F48003002B16D1414B54
:101D38001B6803F00203002B05D07B68DB68012BCE
:101D480001D00123C7E13B4B1B6823F0F8027B68F5
:101D58001B69DB00374913430B603AE07B68DB689B
:101D6800002B20D0344B01221A60FFF7BBF83861F2
:101D780008E0FFF7B7F802463B69D31A022B01D9EE
:101D88000323A8E12B4B1B6803F00203002BF0D0C0
:101D9800284B1B6823F0F8027B681B69DB00254988
:101DA80013430B6015E0244B00221A60FFF79AF8E2
:101DB800386108E0FFF796F802463B69D31A022B10
:101DC80001D9032387E11B4B1B6803F00203002B97
:101DD800F0D17B681B6803F00803002B36D07B68C2
:101DE8005B69002B16D0154B01221A60FFF77AF8B1
:101DF800386108E0FFF776F802463B69D31A022BF0
:101E080001D9032367E10B4B5B6F03F00203002B3F
:101E1800F0D01BE0094B00221A60FFF763F8386125
:101E28000EE0FFF75FF802463B69D31A022B07D989
:101E3800032350E10038024000004742800E474229
:101E4800884B5B6F03F00203002BEAD17B681B68A9
:101E580003F00403002B00F097800023FB75814BEF
:101E68001B6C03F08053002B0FD10023BB607D4B0C
:101E78001B6C7C4A43F0805313647A4B1B6C03F051
:101E88008053BB60BB680123FB75774B1B6803F469
:101E98008073002B18D1744B1B68734A43F480730A
:101EA8001360FFF71FF8386108E0FFF71BF80246D8
:101EB8003B69D31A022B01D903230CE16A4B1B6837
:101EC80003F48073002BF0D07B689B68012B06D14C
:101ED800644B1B6F634A43F0010313671CE07B6884
:101EE8009B68052B0CD15F4B1B6F5E4A43F00403C4
:101EF80013675C4B1B6F5B4A43F0010313670BE0EE
:101F0800584B1B6F574A23F001031367554B1B6F40
:101F1800544A23F0040313677B689B68002B15D091
:101F2800FEF7E0FF38610AE0FEF7DCFF02463B6996
:101F3800D31A41F28832934201D90323CBE0494BAB
:101F48001B6F03F00203002BEED014E0FEF7CAFF6C
:101F580038610AE0FEF7C6FF02463B69D31A41F230
:101F68008832934201D90323B5E03E4B1B6F03F03F
:101F78000203002BEED1FB7D012B05D1394B1B6CE5
:101F8800384A23F0805313647B689B69002B00F068
:101F9800A180344B9B6803F00C03082B5CD07B6852
:101FA8009B69022B41D1314B00221A60FEF79AFF40
:101FB800386108E0FEF796FF02463B69D31A022B08
:101FC80001D9032387E0274B1B6803F00073002B1C
:101FD800F0D17B68DA697B681B6A1A437B685B6AA5
:101FE8009B011A437B689B6A5B08013B1B041A43ED
:101FF8007B68DB6A1B061B4913434B601B4B0122A2
:102008001A60FEF76FFF386108E0FEF76BFF0246C3
:102018003B69D31A022B01D903235CE0114B1B68DF
:1020280003F00073002BF0D054E0104B00221A602C
:10203800FEF758FF386108E0FEF754FF02463B6997
:10204800D31A022B01D9032345E0064B1B6803F082
:102058000073002BF0D13DE07B689B69012B07D111
:10206800012338E000380240007000406000474219
:102078001B4B5B68FB607B689B69012B28D0FB6866
:1020880003F480027B68DB699A4221D1FB6803F084
:102098003F027B681B6A9A421AD1FA6847F6C073F6
:1020A80013407A68526A9201934211D1FB6803F493
:1020B80040327B689B6A5B08013B1B049A4207D14C
:1020C800FB6803F070627B68DB6A1B069A4201D0EA
:1020D800012300E0002318461837BD4680BD00BF25
:1020E8000038024080B584B000AF786039607B6802
:1020F800002B01D10123CCE0684B1B6803F00703D8
:102108003A689A420CD9654B3A68D2B21A70634B56
:102118001B6803F007033A689A4201D00123B8E02C
:102128007B681B6803F00203002B20D07B681B68C8
:1021380003F00403002B05D0594B9B68584A43F41D
:10214800E05393607B681B6803F00803002B05D0FD
:10215800534B9B68524A43F460439360504B9B68CF
:1021680023F0F0027B689B684D4913438B607B68C2
:102178001B6803F00103002B44D07B685B68012BCC
:1021880007D1474B1B6803F40033002B19D10123F7
:102198007FE07B685B68022B03D07B685B68032B5E
:1021A80007D13F4B1B6803F00073002B09D10123B3
:1021B8006FE03B4B1B6803F00203002B01D10123A6
:1021C80067E0374B9B6823F003027B685B68344900
:1021D80013438B60FEF786FEF8600AE0FEF782FE86
:1021E8000246FB68D31A41F28832934201D903238D
:1021F8004FE02B4B9B6803F00C027B685B689B00ED
:102208009A42EBD1254B1B6803F007033A689A42C0
:102218000CD2224B3A68D2B21A70204B1B6803F0DA
:1022280007033A689A4201D0012332E07B681B68B1
:1022380003F00403002B08D0194B9B6823F4E052E9
:102248007B68DB68164913438B607B681B6803F067
:102258000803002B09D0124B9B6823F460427B686B
:102268001B69DB000E4913438B6000F021F802461E
:102278000B4B9B681B0903F00F030A49CB5C22FA3E
:1022880003F3094A1360094B1B681846FEF7E6FD7D
:10229800002318461037BD4680BD00BF003C0240F1
:1022A8000038024010410008040000200C00002003
:1022B8002DE9B04F94B000AF00237B640023FB648A
:1022C80000233B640023BB64794B9B6803F00C0339
:1022D800082B0DD0082B00F2E180002B02D0042B34
:1022E80003D0DBE0734BBB64DBE0734BBB64D8E02B
:1022F8006F4B5B6803F03F037B646D4B5B6803F4D3
:102308008003002B63D06A4B5B689B090022BB6388
:10231800FA63BB6BC3F308033B6300237B63D7E912
:102328000C4522462B464FF000004FF000015901A2
:1023380041EAD261500102460B462146511A3961E1
:10234800294663EB01037B614FF000024FF0000365
:10235800D7E904AB59468B01514643EA916351468C
:102368008A015146B2EB0108594663EB01094FF067
:1023780000024FF000034FEAC90343EA58734FEADB
:10238800C80290469946234618EB0303BB602B46C8
:1023980049EB0303FB604FF000024FF00003D7E95D
:1023A800024529464B02214643EAD15321464A02B7
:1023B800104619467B6C0022BB62FA62D7E90A23F1
:1023C800FDF7FEFE02460B461346FB6458E0384B09
:1023D8005B689B09002218461146C0F308033B625C
:1023E80000237B62D7E9088942464B464FF000003C
:1023F8004FF00001590141EAD261500102460B46F3
:102408004146B2EB010A494663EB010B4FF000026B
:102418004FF000034FEA8B1343EA9A634FEA8A129C
:10242800B2EB0A0463EB0B054FF000024FF0000318
:10243800EB0043EA5473E20014461D464346E31892
:102448003B604B4645EB03037B604FF000024FF0C7
:102458000003D7E9004529468B02214643EA9153F8
:1024680021468A02104619467B6C0022BB61FA613C
:10247800D7E90623FDF7A4FE02460B461346FB6484
:102488000B4B5B681B0C03F0030301335B003B64DD
:10249800FA6C3B6CB2FBF3F3BB6402E0054BBB6424
:1024A80000BFBB6C18465037BD46BDE8B08F00BFB3
:1024B800003802400024F40000127A0080B400AF13
:1024C800034B1B681846BD465DF8047B704700BF88
:1024D8000400002080B500AFFFF7F0FF0246054B6F
:1024E8009B689B0A03F007030349CB5C22FA03F3BA
:1024F800184680BD003802402041000880B500AF72
:10250800FFF7DCFF0246054B9B685B0B03F00703F4
:102518000349CB5C22FA03F3184680BD0038024019
:102528002041000880B582B000AFFEF7DBFC786080
:102538005D4B1B685C4A43F00103136008E0FEF73B
:10254800D1FC02467B68D31A022B01D90323A7E0EA
:10255800554B1B6803F00203002BF0D0524B1B684D
:10256800514A43F080031360FEF7BCFC78604E4B81
:1025780000229A600AE0FEF7B5FC02467B68D31A8F
:1025880041F28832934201D9032389E0464B9B6884
:1025980003F00C03002BEED1FEF7A4FC7860424B4D
:1025A8001B68414A23F45023136008E0FEF79AFCA5
:1025B80002467B68D31A642B01D9032370E03A4B97
:1025C8001B6803F40033002BF0D1FEF78BFC786016
:1025D800354B1B68344A23F08073136008E0FEF71C
:1025E80081FC02467B68D31A022B01D9032357E0EA
:1025F8002D4B1B6803F00073002BF0D1FEF772FC23
:102608007860294B1B68284A23F08063136008E030
:10261800FEF768FC02467B68D31A022B01D9032314
:102628003EE0214B1B6803F00063002BF0D11E4BEA
:102638001E4A5A601C4B1E4AC3F884201A4BDB689A
:10264800194A23F4F853D360174BDB68164A23F46E
:102658000053D360144BDB68134A43F41F03D36061
:10266800114BDB68104A43F40013D3600E4B5B6FC9
:102678000D4A23F0010353670B4B5B6F0A4A43F083
:10268800807353670B4B0C4A1A600C4B1B68184637
:10269800FEF7E4FB0346002B01D0012300E00023F2
:1026A80018460837BD4680BD003802401030000487
:1026B80000300020040000200024F4000C0000205A
:1026C80080B582B000AF78607B68002B01D1012310
:1026D80041E07B6893F83D30DBB2002B06D17B6884
:1026E800002283F83C207868FEF7B6F87B6802225F
:1026F80083F83D207B681A687B68043319461046C6
:1027080000F00AFB7B68012283F846207B680122DF
:1027180083F83E207B68012283F83F207B680122F2
:1027280083F840207B68012283F841207B680122DE
:1027380083F842207B68012283F843207B680122CA
:1027480083F844207B68012283F845207B680122B6
:1027580083F83D20002318460837BD4680BD80B564
:1027680082B000AF78607B68022283F83D207B68E6
:102778001B681A6A41F211131340002B0FD17B68B2
:102788001B681A6A40F244431340002B07D17B6848
:102798001B681A687B681B6822F001021A60786857
:1027A800FEF780F87B68002283F846207B680022C9
:1027B80083F83E207B68002283F83F207B68002254
:1027C80083F840207B68002283F841207B68002240
:1027D80083F842207B68002283F843207B6800222C
:1027E80083F844207B68002283F845207B68002218
:1027F80083F83D207B68002283F83C20002318469C
:102808000837BD4680BD000080B485B000AF786051
:102818007B6893F83D30DBB2012B01D001234EE0F9
:102828007B68022283F83D207B681B68DA687B6836
:102838001B6842F00102DA607B681B68234A9342F6
:1028480022D07B681B68B3F1804F1DD07B681B6862
:102858001F4A934218D07B681B681E4A934213D0C4
:102868007B681B681C4A93420ED07B681B681B4A16
:10287800934209D07B681B68194A934204D07B684D
:102888001B68184A934211D17B681B689B6803F048
:102898000703FB60FB68062B10D07B681B681A686F
:1028A8007B681B6842F001021A6007E07B681B68BE
:1028B8001A687B681B6842F001021A6000231846F8
:1028C8001437BD465DF8047B704700BF0000014027
:1028D8000004004000080040000C004000040140D3
:1028E800004001400018004080B483B000AF786019
:1028F8007B681B68DA687B681B6822F00102DA6073
:102908007B681B681A6A41F211131340002B0FD120
:102918007B681B681A6A40F244431340002B07D1B6
:102928007B681B681A687B681B6822F001021A60C2
:102938007B68012283F83D20002318460C37BD46EA
:102948005DF8047B704780B584B000AF78607B6821
:102958001B68DB68FB607B681B681B69BB60BB6826
:1029680003F00203002B20D0FB6803F00203002BC6
:102978001BD07B681B686FF002021A617B6801221A
:102988001A777B681B689B6903F00303002B03D04D
:10299800786800F0A3F905E0786800F095F97868A0
:1029A80000F0A6F97B6800221A77BB6803F00403DD
:1029B800002B20D0FB6803F00403002B1BD07B689E
:1029C8001B686FF004021A617B6802221A777B6821
:1029D8001B689B6903F44073002B03D0786800F0F0
:1029E8007DF905E0786800F06FF9786800F080F903
:1029F8007B6800221A77BB6803F00803002B20D0FD
:102A0800FB6803F00803002B1BD07B681B686FF082
:102A180008021A617B6804221A777B681B68DB69E5
:102A280003F00303002B03D0786800F057F905E0A2
:102A3800786800F049F9786800F05AF97B68002254
:102A48001A77BB6803F01003002B20D0FB6803F053
:102A58001003002B1BD07B681B686FF010021A61F3
:102A68007B6808221A777B681B68DB6903F440736C
:102A7800002B03D0786800F031F905E0786800F0A1
:102A880023F9786800F034F97B6800221A77BB686C
:102A980003F00103002B0CD0FB6803F00103002BAB
:102AA80007D07B681B686FF001021A61786800F034
:102AB80001F9BB6803F08003002B0CD0FB6803F01E
:102AC8008003002B07D07B681B686FF080021A61B7
:102AD800786800F0EDFABB6803F04003002B0CD0D7
:102AE800FB6803F04003002B07D07B681B686FF07E
:102AF80040021A61786800F005F9BB6803F020030A
:102B0800002B0CD0FB6803F02003002B07D07B6858
:102B18001B686FF020021A61786800F0BFFA00BFE6
:102B28001037BD4680BD80B584B000AF786039608D
:102B38000023FB737B6893F83C30012B01D10223FF
:102B4800B4E07B68012283F83C207B68022283F88A
:102B58003D207B681B689B68BB60BB6823F07703DC
:102B6800BB60BB6823F47F43BB607B681B68BA68A3
:102B78009A603B681B68B3F5005F3ED0B3F5005F11
:102B880000F28780B3F5805F00F08680B3F5805F40
:102B98007FD8702B1AD0702B7BD8602B50D0602B2D
:102BA80077D8502B3CD0502B73D8402B58D0402B83
:102BB8006FD8302B64D0302B6BD8202B60D0202BD3
:102BC80067D8002B5CD0102B5AD062E07B6818685D
:102BD8003B6899683B685A683B68DB6800F0C2F953
:102BE8007B681B689B68BB60BB6843F07703BB606E
:102BF8007B681B68BA689A604FE07B6818683B6816
:102C080099683B685A683B68DB6800F0ABF97B68F9
:102C18001B689A687B681B6842F480429A603CE0B3
:102C28007B6818683B6859683B68DB681A4600F09F
:102C38001FF97B681B685021184600F078F92CE0D2
:102C48007B6818683B6859683B68DB681A4600F07F
:102C58003EF97B681B686021184600F068F91CE0A3
:102C68007B6818683B6859683B68DB681A4600F05F
:102C7800FFF87B681B684021184600F058F90CE003
:102C88007B681A683B681B681946104600F04FF9C4
:102C980003E00123FB7300E000BF7B68012283F897
:102CA8003D207B68002283F83C20FB7B18461037C8
:102CB800BD4680BD80B483B000AF786000BF0C37DC
:102CC800BD465DF8047B704780B483B000AF786080
:102CD80000BF0C37BD465DF8047B704780B483B0F5
:102CE80000AF786000BF0C37BD465DF8047B7047C5
:102CF80080B483B000AF786000BF0C37BD465DF884
:102D0800047B704780B483B000AF786000BF0C3795
:102D1800BD465DF8047B704780B485B000AF78602D
:102D280039607B681B68FB607B68464A934213D016
:102D38007B68B3F1804F0FD07B68434A93420BD036
:102D48007B68424A934207D07B68414A934203D04A
:102D58007B68404A934208D1FB6823F07003FB600C
:102D68003B685B68FA681343FB607B68354A9342AB
:102D78002BD07B68B3F1804F27D07B68324A9342CF
:102D880023D07B68314A93421FD07B68304A9342F4
:102D98001BD07B682F4A934217D07B682E4A9342F8
:102DA80013D07B682D4A93420FD07B682C4A9342FC
:102DB8000BD07B682B4A934207D07B682A4A934200
:102DC80003D07B68294A934208D1FB6823F44073F7
:102DD800FB603B68DB68FA681343FB60FB6823F021
:102DE80080023B685B691343FB607B68FA681A6082
:102DF8003B689A687B68DA623B681A687B689A6203
:102E08007B68104A934203D07B68124A934203D1ED
:102E18003B681A697B681A637B6801225A617B6880
:102E28001B6903F00103012B05D17B681B6923F0A3
:102E380001027B681A6100BF1437BD465DF8047B48
:102E4800704700BF00000140000400400008004037
:102E5800000C0040000401400040014000440140D3
:102E68000048014000180040001C004000200040BD
:102E780080B487B000AFF860B9607A60FB681B6AFD
:102E88007B61FB681B6A23F00102FB681A62FB681E
:102E98009B693B613B6923F0F0033B617B681B0145
:102EA8003A6913433B617B6923F00A037B617A69C2
:102EB800BB6813437B61FB683A699A61FB687A696E
:102EC8001A6200BF1C37BD465DF8047B704780B4AA
:102ED80087B000AFF860B9607A60FB681B6A7B61F5
:102EE800FB681B6A23F01002FB681A62FB689B6987
:102EF8003B613B6923F470433B617B681B033A6980
:102F080013433B617B6923F0A0037B61BB681B0112
:102F18007A6913437B61FB683A699A61FB687A694D
:102F28001A6200BF1C37BD465DF8047B704780B449
:102F380085B000AF786039607B689B68FB60FB6890
:102F480023F07003FB603A68FB68134343F0070300
:102F5800FB607B68FA689A6000BF1437BD465DF86D
:102F6800047B704780B487B000AFF860B9607A60BE
:102F78003B60FB689B687B617B6923F47F437B61D3
:102F88003B681A027B681A43BB6813437A69134388
:102F98007B61FB687A699A6000BF1C37BD465DF8A3
:102FA800047B704780B485B000AF786039607B6877
:102FB80093F83C30012B01D102235AE07B680122AF
:102FC80083F83C207B68022283F83D207B681B68DD
:102FD8005B68FB607B681B689B68BB60FB6823F0D1
:102FE8007003FB603B681B68FA681343FB607B68EF
:102FF8001B68FA685A607B681B68214A934222D092
:103008007B681B68B3F1804F1DD07B681B681D4A25
:10301800934218D07B681B681B4A934213D07B6885
:103028001B681A4A93420ED07B681B68184A934261
:1030380009D07B681B68174A934204D07B681B68D9
:10304800154A93420CD1BB6823F08003BB603B68F0
:103058005B68BA681343BB607B681B68BA689A6090
:103068007B68012283F83D207B68002283F83C209E
:10307800002318461437BD465DF8047B704700BF2F
:10308800000001400004004000080040000C00401F
:1030980000040140004001400018004080B483B0A3
:1030A80000AF786000BF0C37BD465DF8047B704701
:1030B80080B483B000AF786000BF0C37BD465DF8C0
:1030C800047B704780B582B000AF78607B68002BC6
:1030D80001D1012342E07B6893F84130DBB2002B39
:1030E80006D17B68002283F840207868FDF7F2FB60
:1030F8007B68242283F841207B681B68DA687B6838
:103108001B6822F40052DA60786800F043FD7B689F
:103118001B681A697B681B6822F490421A617B68F5
:103128001B685A697B681B6822F02A025A617B680F
:103138001B68DA687B681B6842F40052DA607B68B7
:1031480000225A647B68202283F841207B68202271
:1031580083F842207B6800225A6300231846083708
:10316800BD4680BD80B582B000AF78607B68002B1B
:1031780001D1012324E07B68242283F841207B6865
:103188001B68DA687B681B6822F40052DA6078688A
:10319800FDF7F0FB7B6800225A647B68002283F805
:1031A80041207B68002283F842207B6800221A6352
:1031B8007B6800225A637B68002283F84020002342
:1031C80018460837BD4680BD80B485B000AFF860AA
:1031D800B9601346FB80FB6893F84130DBB2202BC3
:1031E80021D1BB68002B02D0FB88002B01D1012321
:1031F8001AE0FB68BA681A62FB68FA889A84FB6866
:10320800FA88DA84FB6800225A64FB68212283F872
:103218004120FB681B68DA68FB681B6842F0800283
:10322800DA60002300E0022318461437BD465DF833
:10323800047B704780B584B000AFF860B96013466E
:10324800FB80FB6893F84230DBB2202B12D1BB68BD
:10325800002B02D0FB88002B01D101230BE0FB6877
:1032680000221A63FB881A46B968F86800F0BAFAAF
:10327800034600E0022318461037BD4680BD000013
:1032880080B5BAB000AF78607B681B681B68C7F868
:10329800E4307B681B68DB68C7F8E0307B681B6834
:1032A8005B69C7F8DC300023C7F8D8300023C7F8BB
:1032B800D430D7F8E43003F00F03C7F8D830D7F884
:1032C800D830002B0FD1D7F8E43003F02003002BBF
:1032D80009D0D7F8E03003F02003002B03D078683A
:1032E80000F099FB5BE2D7F8D830002B00F0DE80C5
:1032F800D7F8DC3003F00103002B06D1D7F8E03013
:1033080003F49073002B00F0D180D7F8E43003F079
:103318000103002B0BD0D7F8E03003F48073002BA7
:1033280005D07B685B6C43F001027B685A64D7F870
:10333800E43003F00403002B0BD0D7F8DC3003F0A3
:103348000103002B05D07B685B6C43F002027B68AD
:103358005A64D7F8E43003F00203002B0BD0D7F8F7
:10336800DC3003F00103002B05D07B685B6C43F075
:1033780004027B685A64D7F8E43003F00803002B92
:1033880011D0D7F8E03003F02003002B05D1D7F88F
:10339800DC3003F00103002B05D07B685B6C43F045
:1033A80008027B685A647B685B6C002B00F0F28132
:1033B800D7F8E43003F02003002B08D0D7F8E0302A
:1033C80003F02003002B02D0786800F024FB7B6810
:1033D8001B685B6903F04003402B0CBF01230023EB
:1033E800DBB2C7F8D4307B685B6C03F00803002BB2
:1033F80003D1D7F8D430002B4FD0786800F02CFADE
:103408007B681B685B6903F04003402B41D17B68F4
:103418001B681433C7F89C30D7F89C3053E8003F3A
:10342800C7F89830D7F8983023F04003C7F8D03061
:103438007B681B681433D7F8D020C7F8A820C7F8D2
:10344800A430D7F8A410D7F8A82041E80023C7F87B
:10345800A030D7F8A030002BD9D17B68DB6B002BCC
:1034680013D07B68DB6B7E4A1A657B68DB6B18467A
:10347800FDF71BFF0346002B16D07B68DB6B1B6D2B
:103488007A68D26B104698470EE0786800F094F995
:103498000AE0786800F090F906E0786800F08CF9A6
:1034A8007B6800225A6475E100BF73E17B681B6B7F
:1034B800012B40F04F81D7F8E43003F01003002BC4
:1034C80000F04881D7F8E03003F01003002B00F03B
:1034D80041810023BB607B681B681B68BB607B68FD
:1034E8001B685B68BB60BB687B681B685B6903F033
:1034F8004003402B40F0B6807B68DB6B1B685B6841
:10350800A7F8BE30B7F8BE30002B00F045817B68C5
:103518009B8DB7F8BE209A4280F03E817B68B7F851
:10352800BE20DA857B68DB6BDB69B3F5807F00F052
:1035380088807B681B680C33C7F88830D7F88830D8
:1035480053E8003FC7F88430D7F8843023F48073F9
:10355800C7F8B8307B681B680C33D7F8B820C7F8B1
:103568009420C7F89030D7F89010D7F8942041E805
:103578000023C7F88C30D7F88C30002BD9D17B6862
:103588001B6814337B677B6F53E8003F3B673B6FD7
:1035980023F00103C7F8B4307B681B681433D7F8ED
:1035A800B420C7F88020FB67F96FD7F8802041E87E
:1035B8000023BB67BB6F002BE1D17B681B6814330A
:1035C8003B663B6E53E8003FFB65FB6D23F0400311
:1035D800C7F8B0307B681B681433D7F8B020FA6698
:1035E800BB66B96EFA6E41E800237B667B6E002BE2
:1035F800E3D17B68202283F842207B6800221A638B
:103608007B681B680C33FB64FB6C53E8003FBB64AE
:10361800BB6C23F01003C7F8AC307B681B680C3315
:10362800D7F8AC20BA657B65796DBA6D41E800239F
:103638003B653B6D002BE3D17B68DB6B1846FDF7E0
:10364800C4FD7B6802225A637B689A8D7B68DB8D98
:103658009BB2D31A9BB21946786800F0B7F89BE082
:10366800273900087B689A8D7B68DB8D9BB2D31A5B
:10367800A7F8CE307B68DB8D9BB2002B00F08E80E4
:10368800B7F8CE30002B00F089807B681B680C33BC
:10369800BB63BB6B53E8003F7B637B6B23F4907386
:1036A800C7F8C8307B681B680C33D7F8C8207A6421
:1036B8003B64396C7A6C41E80023FB63FB6B002B9D
:1036C800E3D17B681B6814337B627B6A53E8003F55
:1036D8003B623B6A23F00103C7F8C4307B681B6870
:1036E8001433D7F8C4203A63FB62F96A3A6B41E8AD
:1036F8000023BB62BB6A002BE3D17B68202283F8DE
:1037080042207B6800221A637B681B680C333B618C
:103718003B6953E8003FFB60FB6823F01003C7F8E0
:10372800C0307B681B680C33D7F8C020FA61BB61D6
:10373800B969FA6941E800237B617B69002BE3D111
:103748007B6802225A63B7F8CE301946786800F0D1
:103758003DF823E0D7F8E43003F08003002B09D0CC
:10376800D7F8E03003F08003002B03D0786800F02E
:10377800EAF814E0D7F8E43003F04003002B0ED049
:10378800D7F8E03003F04003002B08D0786800F049
:103798002AF904E000BF02E000BF00E000BFE837FC
:1037A800BD4680BD80B483B000AF786000BF0C37E1
:1037B800BD465DF8047B704780B483B000AF786085
:1037C80000BF0C37BD465DF8047B704780B483B0FA
:1037D80000AF78600B467B8000BF0C37BD465DF8B4
:1037E800047B704780B485B000AFF860B9601346B9
:1037F800FB80FB68BA689A62FB68FA889A85FB685E
:10380800FA88DA85FB6800225A64FB68222283F86A
:103818004220FB681B69002B07D0FB681B68DA682D
:10382800FB681B6842F48072DA60FB681B685A699F
:10383800FB681B6842F001025A61FB681B68DA6882
:10384800FB681B6842F02002DA6000231846143730
:10385800BD465DF8047B704780B495B000AF7860D2
:103868007B681B680C337B637B6B53E8003F3B63CF
:103878003B6B23F49073FB647B681B680C33FA6C16
:103888003A64FB63F96B3A6C41E80023BB63BB6B9A
:10389800002BE5D17B681B6814333B623B6A53E815
:1038A800003FFB61FB6923F00103BB647B681B6875
:1038B8001433BA6CFA62BB62B96AFA6A41E8002347
:1038C8007B627B6A002BE5D17B681B6B012B19D1CE
:1038D8007B681B680C33FB60FB6853E8003FBB60E8
:1038E800BB6823F010037B647B681B680C337A6C1D
:1038F800BA617B617969BA6941E800233B613B6938
:10390800002BE5D17B68202283F842207B680022C7
:103918001A6300BF5437BD465DF8047B704780B515
:1039280084B000AF78607B689B6BFB60FB6800220B
:10393800DA85FB680022DA84F868FFF73DFF00BFEC
:103948001037BD4680BD80B485B000AF78607B6815
:1039580093F84130DBB2212B3ED17B689B68B3F5ED
:10396800805F14D17B681B69002B10D17B681B6AB0
:10397800FB60FB681B881A467B681B68C2F3080259
:103988005A607B681B6A9A1C7B681A6208E07B682D
:103998001B6A591C7A6811621A787B681B685A601E
:1039A8007B68DB8C9BB2013B9BB27A681946D18459
:1039B800002B0FD17B681B68DA687B681B6822F0D4
:1039C8008002DA607B681B68DA687B681B6842F0F3
:1039D8004002DA60002300E0022318461437BD468F
:1039E8005DF8047B704780B582B000AF78607B6873
:1039F8001B68DA687B681B6822F04002DA607B6823
:103A0800202283F841207868FFF7CCFE002318466F
:103A18000837BD4680BD80B58CB000AF78607B6844
:103A280093F84230DBB2222B40F0AE807B689B6873
:103A3800B3F5805F17D17B681B69002B13D1002376
:103A4800FB627B689B6ABB627B681B685B689BB296
:103A5800C3F308039AB2BB6A1A807B689B6A9A1CF4
:103A68007B689A6226E07B689B6AFB620023BB62E4
:103A78007B689B68B3F5805F07D07B689B68002BE9
:103A88000AD17B681B69002B06D17B681B685B68C1
:103A9800DAB2FB6A1A7008E07B681B685B68DBB205
:103AA80003F07F03DAB2FB6A1A707B689B6A5A1CC0
:103AB8007B689A627B68DB8D9BB2013B9BB27A681C
:103AC8001946D185002B5DD17B681B68DA687B6855
:103AD8001B6822F02002DA607B681B68DA687B6862
:103AE8001B6822F48072DA607B681B685A697B68FD
:103AF8001B6822F001025A617B68202283F8422069
:103B08007B6800225A637B681B6B012B35D17B686D
:103B180000221A637B681B680C337B617B6953E85E
:103B2800003F3B613B6923F010037B627B681B68A5
:103B38000C337A6A3A62FB61F9693A6A41E8002310
:103B4800BB61BB69002BE5D17B681B681B6803F070
:103B58001003102B0AD10023FB607B681B681B68CD
:103B6800FB607B681B685B68FB60FB687B689B8D00
:103B780019467868FFF72AFE02E07868FCF7AEFC81
:103B8800002302E0002300E0022318463037BD4638
:103B980080BD00002DE9B04FC0B000AFC7F8F400F9
:103BA800D7F8F4301B681B6923F44050D7F8F43079
:103BB800D968D7F8F4301A6840EA01031361D7F8D6
:103BC800F4309A68D7F8F4301B691A43D7F8F43000
:103BD8005B691A43D7F8F430DB691343C7F8F83048
:103BE800D7F8F4301B68DB6823F4164121F00C0188
:103BF800D7F8F4301A68D7F8F8300B43D360D7F801
:103C0800F4301B685B6923F44070D7F8F430996985
:103C1800D7F8F4301A6840EA01035361D7F8F43052
:103C28001A688F4B9A4205D0D7F8F4301A688D4B32
:103C38009A4204D1FEF762FCC7F8FC0003E0FEF7E5
:103C480049FCC7F8FC00D7F8F430DB69B3F5004F3E
:103C580040F00C81D7F8FC300022C7F8E830C7F8EC
:103C6800EC20D7E93A4522462B469118B9655B41C5
:103C7800FB65D7E91623214612EB0108294643EBD9
:103C880001094FF000024FF000034FEAC90343EA6D
:103C980058734FEAC80290469946234618EB030327
:103CA800C7F8E0302B4649EB0303C7F8E430D7F8F0
:103CB800F4305B680022C7F8D830C7F8DC20D7E9B1
:103CC80036120B46DB183B65134642EB03037B6554
:103CD800D7E91423D7E93801FCF772FA02460B46F4
:103CE800614BA3FB02235B091C01D7F8FC300022BF
:103CF800C7F8D030C7F8D420D7E9348942464B46B4
:103D08009118B9645B41FB64D7E91223414612EB71
:103D1800010A494643EB010B4FF000024FF0000344
:103D28004FEACB0343EA5A734FEACA0292469B46CC
:103D380043461AEB0303C7F8C8304B464BEB030363
:103D4800C7F8CC30D7F8F4305B680022C7F8C03029
:103D5800C7F8C420D7E930120B46DB183B6413467A
:103D680042EB03037B64D7E91023D7E93201FCF760
:103D780027FA02460B4611463B4BA3FB01235B097E
:103D8800642202FB03F3CB1ADB0003F13202364B49
:103D9800A3FB02235B095B0003F4F8731C44D7F808
:103DA800FC300022C7F8B830C7F8BC20D7E92E8904
:103DB80042464B469118B9635B41FB63D7E90E2332
:103DC80041465118396349464B417B634FF0000225
:103DD8004FF00003D7E90CAB5946CB00514643EAF4
:103DE80051735146CA0010461946034642469B186D
:103DF800C7F8B0304B460A4642EB0303C7F8B43065
:103E0800D7F8F4305B680022C7F8A830C7F8AC20B0
:103E1800D7E92A120B46DB18BB62134642EB0303B1
:103E2800FB62D7E90A23D7E92C01FCF7C9F9024656
:103E38000B460D4BA3FB02135B09642101FB03F343
:103E4800D31ADB003233084AA2FB03235B0903F0D1
:103E58000702D7F8F4301B6822449A6006E100BFD5
:103E680000100140001401401F85EB51D7F8FC30C9
:103E78000022C7F8A030C7F8A420D7E9288942460D
:103E88004B46911839625B417B62D7E9082341466A
:103E98005418494643EB01054FF000024FF0000368
:103EA800EB0043EA5473E20014461D464346E31808
:103EB800C7F898304B4645EB0303C7F89C30D7F852
:103EC800F4305B680022C7F89030C7F894204FF0B0
:103ED80000024FF00003D7E9244529468B0021460C
:103EE80043EA917321468A00D7E92601FCF768F96D
:103EF80002460B46604BA3FB02235B091C01D7F863
:103F0800FC300022C7F88830C7F88C20D7E922890E
:103F180042464B469118B9615B41FB61D7E90623DC
:103F280041465118396149464B417B614FF00002C7
:103F38004FF00003D7E904AB5946CB00514643EA9A
:103F480051735146CA0010461946034642469B180B
:103F5800C7F880304B460A4642EB0303C7F8843063
:103F6800D7F8F4305B680022BB67FA674FF00002AD
:103F78004FF00003D7E91E8949468B00414643EAC2
:103F8800917341468A00D7E92001FCF719F90246E6
:103F98000B461146384BA3FB01235B09642202FB45
:103FA80003F3CB1A1B013233334AA2FB03235B0909
:103FB80003F0F0031C44D7F8FC3000223B677A6713
:103FC800D7E91C8942464B469118B9605B41FB60B2
:103FD800D7E9022341465118396049464B417B6075
:103FE8004FF000024FF00003D7E900AB5946CB0071
:103FF800514643EA51735146CA00104619460346D2
:1040080042469B18BB664B460A4642EB0303FB66D7
:10401800D7F8F4305B6800223B667A664FF00002FE
:104028004FF00003D7E9188949468B00414643EA17
:10403800917341468A00D7E91A01FCF7C1F8024694
:104048000B460D4BA3FB02135B09642101FB03F331
:10405800D31A1B013233084AA2FB03235B0903F07E
:104068000F02D7F8F4301B6822449A6000BF07F5A6
:104078008077BD46BDE8B08F1F85EB5102440346EB
:10408800934200D1704703F8011BF9E770B50D4D55
:104098000D4C641BA4100026A64209D10B4D0C4CF4
:1040A80000F018F8641BA4100026A64205D170BDC4
:1040B80055F8043B98470136EEE755F8043B984716
:1040C8000136F2E73041000830410008304100086D
:1040D80034410008F8B500BFF8BC08BC9E467047DC
:0C40E800F8B500BFF8BC08BC9E4670474D
:1040F40057616974696E6720426F6F74204D6F64F5
:1041040065204D6573736167650A00000000000057
:104114000000000001020304060708090000000073
:04412400010203048D
:08412800D0C0FF7F0100000080
:04413000AD010008D5
:0441340089010008F5
:10413800008000080024F40004800008100000003B
:044148000100000072
:0400000508000A5590
:00000001FF
